:020000040000fa
:080000000002040000000000f2
:020000040000fa
:040008000c040000e4
:020000040000fa
:04000c000c040000e0
:020000040000fa
:040010000c040000dc
:020000040000fa
:040014000c040000d8
:020000040000fa
:040018000c040000d4
:020000040000fa
:04001c000c040000d0
:020000040000fa
:040020000c040000cc
:020000040000fa
:040024000c040000c8
:020000040000fa
:040028000c040000c4
:020000040000fa
:04002c000c040000c0
:020000040000fa
:040030000c040000bc
:020000040000fa
:0400340024030000a1
:020000040000fa
:040038000c040000b4
:020000040000fa
:04003c000c040000b0
:020000040000fa
:040040000c040000ac
:020000040000fa
:040044000c040000a8
:020000040000fa
:04004800fa020000b8
:020000040000fa
:04004c000c040000a0
:020000040000fa
:040050000c0400009c
:020000040000fa
:04005400c8030000dd
:020000040000fa
:040058009e03000003
:020000040000fa
:04005c007a03000023
:020000040000fa
:040060000c0400008c
:020000040000fa
:040064000c04000088
:020000040000fa
:040068000c04000084
:020000040000fa
:04006c000c04000080
:020000040000fa
:040070000c0400007c
:020000040000fa
:040074000c04000078
:020000040000fa
:040078000c04000074
:020000040000fa
:04007c000c04000070
:020000040000fa
:040080000c0400006c
:020000040000fa
:040084000c04000068
:020000040000fa
:040088000c04000064
:020000040000fa
:04008c000c04000060
:020000040000fa
:040090000c0400005c
:020000040000fa
:040094004403000021
:020000040000fa
:040098000c04000054
:020000040000fa
:04009c000c04000050
:020000040000fa
:0400a0000c0400004c
:020000040000fa
:0400a4000c04000048
:020000040000fa
:0400a8000c04000044
:020000040000fa
:0400ac000c04000040
:020000040000fa
:0400b0000c0400003c
:020000040000fa
:0400b4000c04000038
:020000040000fa
:0400b8000c04000034
:020000040000fa
:0400bc000c04000030
:020000040000fa
:0400c0000c0400002c
:020000040000fa
:0400c4000c04000028
:020000040000fa
:0400c8000c04000024
:020000040000fa
:0400cc000c04000020
:020000040000fa
:0400d0000c0400001c
:020000040000fa
:0400d4000c04000018
:020000040000fa
:0400d8000c04000014
:020000040000fa
:0400dc000c04000010
:020000040000fa
:0400e0000c0400000c
:020000040000fa
:0400e4000c04000008
:020000040000fa
:0400e8000c04000004
:020000040000fa
:0400ec000c04000000
:020000040000fa
:0400f0000c040000fc
:020000040000fa
:0400f4000c040000f8
:020000040000fa
:0400f8000c040000f4
:020000040000fa
:0400fc000c040000f0
:020000040000fa
:040100000c040000eb
:020000040000fa
:040104000c040000e7
:020000040000fa
:040108000c040000e3
:020000040000fa
:04010c000c040000df
:020000040000fa
:040110000c040000db
:020000040000fa
:040114000c040000d7
:020000040000fa
:040118000c040000d3
:020000040000fa
:04011c000c040000cf
:020000040000fa
:040120000c040000cb
:020000040000fa
:040124000c040000c7
:020000040000fa
:040128000c040000c3
:020000040000fa
:04012c000c040000bf
:020000040000fa
:040130000c040000bb
:020000040000fa
:040134000c040000b7
:020000040000fa
:040138000c040000b3
:020000040000fa
:04013c000c040000af
:020000040000fa
:040140000c040000ab
:020000040000fa
:040144000c040000a7
:020000040000fa
:040148000c040000a3
:020000040000fa
:04014c000c0400009f
:020000040000fa
:040150000c0400009b
:020000040000fa
:040154000c04000097
:020000040000fa
:040158000c04000093
:020000040000fa
:04015c000c0400008f
:020000040000fa
:040160000c0400008b
:020000040000fa
:040164000c04000087
:020000040000fa
:040168000c04000083
:020000040000fa
:04016c000c0400007f
:020000040000fa
:040170000c0400007b
:020000040000fa
:040174000c04000077
:020000040000fa
:040178000c04000073
:020000040000fa
:04017c000c0400006f
:020000040000fa
:040180000c0400006b
:020000040000fa
:040184000c04000067
:020000040000fa
:040188000c04000063
:020000040000fa
:04018c000c0400005f
:020000040000fa
:040190000c0400005b
:020000040000fa
:040194000c04000057
:020000040000fa
:040198000c04000053
:020000040000fa
:04019c000c0400004f
:020000040000fa
:0401a0000c0400004b
:020000040000fa
:0401a4000c04000047
:020000040000fa
:0401a8000c04000043
:020000040000fa
:0401ac000c0400003f
:020000040000fa
:0401b0000c0400003b
:020000040000fa
:0401b4000c04000037
:020000040000fa
:0401b8000c04000033
:020000040000fa
:0401bc000c0400002f
:020000040000fa
:0401c0000c0400002b
:020000040000fa
:0401c4000c04000027
:020000040000fa
:0401c8000c04000023
:020000040000fa
:0401cc000c0400001f
:020000040000fa
:0401d0000c0400001b
:020000040000fa
:0401d4000c04000017
:020000040000fa
:0401d8000c04000013
:020000040000fa
:0401dc000c0400000f
:020000040000fa
:0401e0000c0400000b
:020000040000fa
:0401e4000c04000007
:020000040000fa
:0401e8000c04000003
:020000040000fa
:0401ec000c040000ff
:020000040000fa
:0401f0000c040000fb
:020000040000fa
:0401f4000c040000f7
:020000040000fa
:0401f8000c040000f3
:020000040000fa
:0401fc000c040000ef
:020000040000fa
:040200000c040000ea
:020000040000fa
:040204000c040000e6
:020000040000fa
:040208000c040000e2
:020000040000fa
:04020c000c040000de
:020000040000fa
:040210000c040000da
:020000040000fa
:040214000c040000d6
:020000040000fa
:040218000c040000d2
:020000040000fa
:04021c000c040000ce
:020000040000fa
:040220000c040000ca
:020000040000fa
:040224000c040000c6
:020000040000fa
:040228000c040000c2
:020000040000fa
:04022c000c040000be
:020000040000fa
:040230000c040000ba
:020000040000fa
:040234000c040000b6
:020000040000fa
:040238000c040000b2
:020000040000fa
:04023c000c040000ae
:020000040000fa
:040240000c040000aa
:020000040000fa
:040244000c040000a6
:020000040000fa
:040248000c040000a2
:020000040000fa
:04024c000c0400009e
:020000040000fa
:040250000c0400009a
:020000040000fa
:040254000c04000096
:020000040000fa
:040258000c04000092
:020000040000fa
:04025c000c0400008e
:020000040000fa
:040260000c0400008a
:020000040000fa
:040264000c04000086
:020000040000fa
:040268000c04000082
:020000040000fa
:04026c000c0400007e
:020000040000fa
:040270000c0400007a
:020000040000fa
:040274000c04000076
:020000040000fa
:040278000c04000072
:020000040000fa
:04027c000c0400006e
:020000040000fa
:040280000c0400006a
:020000040000fa
:100400008f1d21000eff2c000e018800000000004f
:10041000000020000000e000020032000001200087
:100420002002880014000700fd0007000000e00023
:1004300003003a00a0bc21000100200002003700a8
:100440000000200001002000810f70000100320038
:100450000f000700000020000000e0000200320052
:100460000000020000000000401002000000000038
:100470000040da000000fe00200020000000e00044
:1004800002003200100020009001880000000600e9
:10049000a1028800800478000000eb001f003700f4
:1004a000e284440054a0b4009905ba00e2844400f8
:1004b00054a0b4009906ba00e284440054a0b400e9
:1004c0000006eb00476fde00fd07b200ae018800ba
:1004d000636ce10003003a000ad801000000eb0061
:1004e0000e003700606ce10008003a00004deb00a0
:1004f0000a05e800020039003420ec000af0a000f0
:100500008b05e900f9ff3e00040037006168e10057
:10051000010032000086eb000b00070019c7ba008b
:100520000e04e0001905ba0003003a000a00e000da
:10053000dbff3a0000000600fe07b200ae028800b2
:100540008a047800f5ff37000cd0a300e20f4d00bd
:100550001c003b0089027800354dba000a05e8000e
:10056000020039003420ec000af0a0008b05e900fd
:100570000f003200254dba000a05e80002003900dc
:100580003420ec000af0a0008b05e90008003200de
:100590000c00e0000600320015cdba000a05e800a4
:1005a000020039003420ec000af0a0008b05e900bd
:1005b0008984e80054a0b4000b00e000e2ff3a0098
:1005c000000006009902ba00055d78008b05e9007d
:1005d000f7ff3200c82ade00055d78008b05e900d0
:1005e000f3ff32000c00e000f1ff320019ddba0029
:1005f000eeff3700809fbe000000fa000108a9004e
:1006000021718000004020000080600000f0a70001
:100610000000ea000000e9004f00de000040780022
:100620000080fb00610060004a00dd002171800055
:1006300001a0a10001007000207188000080fa0074
:100640004f00be00004006003600f800809fbe004c
:10065000829fbe00849fbe00869fbe000000fa00fd
:100660000068a900e0090700bb0b07000080fa0042
:100670004f03be004f02be004f01be004f00be0040
:100680003600f900004006003600f800809fbe00ea
:10069000829fbe00849fbe00869fbe000000fa00bd
:1006a0000368a90000808000118080006100400084
:1006b000e080480000808800118088002080800051
:1006c0003180800061004000e08048002080880088
:1006d000318088009a0407000080fa004f03be00b2
:1006e0004f02be004f01be004f00be003600f900b1
:1006f00000400600801f78000000fa0001a8a90051
:1007000000188000708e880010188000808e88008d
:1007100020188000908e880030188000a08e8800fd
:1007200040188000b08e880010c0b30023f0b700de
:100730000080fa004f007800004006003600f80004
:10074000809fbe00829fbe00849fbe00869fbe0029
:100750000000fa000188a900a1808000908080003c
:10076000808f5000020032001c0b07000100370090
:100770001670ef000080fa004f03be004f02be006b
:100780004f01be004f00be003600f90000400600d9
:100790003600f800809fbe00829fbe00849fbe008e
:1007a000869fbe000000fa000168a90010118000b9
:1007b000640060000000e000010032002242a90055
:1007c00010118000620060000000e00006003200ae
:1007d0002222a90005003700301180000040780077
:1007e0006d0b0700010037000000000010118000b1
:1007f000610060000000e000f7ff3a000080fa00ae
:100800004f03be004f02be004f01be004f00be00ae
:100810003600f900004006000040da000000fe004b
:100820000000050014002000aa033700f4ff2f0089
:10083000a80337000001be003c0007000470a700b9
:1008400003f0a1006509b100160032000d0035006b
:100850006828e10006003500f0ff2f00f1ff2700b7
:100860000300e00013003b00010028000000050029
:1008700000004000818048008502e900fcff3a004a
:1008800008003700f88f420002003c008000eb00b7
:10089000000005008100d1000080d3008502e8003f
:1008a000fcff3a000300e00002003b006000100083
:1008b000e0801800000006000001be001b000700d9
:1008c0000470a70003f0a10003f8a30013003a008e
:1008d0006509b10010003200090035006928e10007
:1008e0000200350001002800000005000000400063
:1008f000818048008502e900fcff3a000000060004
:10090000f88f4200050035008100d1000080d3003f
:100910008502e800fcff3a00000006008000eb00c2
:10092000000005006011b80085033700c70ade002b
:10093000f107b200f50fb20008003200e1cf42002b
:10094000020032000170a00024000500810f700039
:10095000010032000408050044000500810f70000a
:1009600002003a00140005008502e9000000400082
:1009700081c04800fcff3b000170a000240005007e
:1009800007f82700078361000638e10004003a00f9
:10099000f7072000878361008703710001003a0098
:1009a00003f0a200889fbe008a9fbe008c9fbe00fd
:1009b000470ade000480a100c71ade000580a100fe
:1009c000070028000785600087856100f70f200079
:1009d0000720e1009e0032000728e1009c00320061
:1009e000010678000400e000b4003200f7072000a0
:1009f000878060000170a0000500e000c0003200a8
:100a0000f7072000878161000370a00005065200ef
:100a10000f003a000b50e1000b0032000308e10028
:100a200002003a000200e1007e00320002045000a1
:100a300083845800040031000001fd008101fd00a5
:100a40008402fd008a05fd006044b80021003700e3
:100a50000520e10005003d000001fd008101fd00d1
:100a60008402fd008a05fd00050652007a60e1005f
:100a7000050035000170a1004722dd008480700070
:100a80008a807000630037006044b800ef0266009f
:100a900007ff2f00070666000500e000060034008f
:100aa000f08312008714dd000511de00071bdd0056
:100ab000060171008519de007060e1000500350057
:100ac0000904780082047800030178008001eb00bb
:100ad000700656000b50e10003003a00020040008f
:100ae000838048000400370060041400e0841c0088
:100af00002005800838058000188a30006003200dd
:100b00008100d1000080d3008984d3000884d30001
:100b10000402e800270037000178a30025003a000e
:100b20000100e000030032008186cf006986560094
:100b30000a0037008c0020000000e00004003a00aa
:100b400009007800880478000004eb00700252006d
:100b50008086cf000d0646000c06e9007060e100bb
:100b600006003500800078000900780088047800cd
:100b70000004eb0070065600700252000c00e0000a
:100b80000c0034008c08dd00f00316000703de00c3
:100b9000868070000c00dd00074bde000600700050
:100ba0008c4cdd000743de00868474000c44dd00bd
:100bb0000c0252006120e10020003500610160005c
:100bc0000700280087816400f7ff270087836400ff
:100bd000070374000300e000060032008203730084
:100be000040032000000e800e08048000188a30013
:100bf0000e003a00f70f20000720e1004a003d00f8
:100c00000170a1004722dd00810072008a8070001f
:100c10000000be004f06be004f05be004f04be00e0
:100c2000000006006000b800faff37008100d10024
:100c30000080d3000402e800eeff370004017800d2
:100c400089017400a10107008a807000f1ff37005c
:100c5000f7010700070278000001fd008101fd0097
:100c6000f301070087027800850372000778a3006c
:100c7000040032000001fd008101fd0006020700b2
:100c8000e4ff3700850362000768a3000800320014
:100c90000b50e10003003200f0ff2f00f1ff2700ae
:100ca000dcff37000001fd008101fd00d9ff3700a6
:100cb0000468a300d7ff3200faff3700f8ff2700cf
:100cc000888360000b003a000000e00009003a0051
:100cd0008303640082837300020032000200be00be
:100ce000ccff37000b50e100ceff3a000200be00ff
:100cf000c8ff370014002000810064003eff370069
:100d0000f8ff27008883610004003a000200e00039
:100d100002003a008c007800beff3700150020006a
:100d20008301640039ff370001f82700000020002c
:100d300081007500b7ff3700889fbe008a9fbe0004
:100d40008c9fbe001b0020000202be0005866800ca
:100d500006002800060666004709de00f20fb20012
:100d6000820032000243e80080003200c729de0022
:100d7000f30fb2007d0032000343e8007b00320035
:100d8000f107b2000170a000f507b2000570a000e5
:100d9000c708dd004903de00868070004700dd00e3
:100da000c72add004923de00868272004722dd006b
:100db00003055100040350008583580003003100ef
:100dc00000004000818048000a05e9008c1f78007f
:100dd0008a9fbe0004005000858058000402420033
:100de00085824a0000004000818048000005eb0039
:100df0000004be006033b8000406be000d48e100e8
:100e000056003100110009004dccd8000c01b8008b
:100e10000d02b8008481410060824a008283530041
:100e200003045c0084845c0060055d000a00e0004f
:100e300025003a00800578000d40e10049003100ae
:100e40008800780007007800110009004d88d8005c
:100e50000c01b8000d02b8008481410060824a0094
:100e60006003110083835b0004045c00e0845c0089
:100e70000900e00021003a004f01be000300e0003d
:100e80002b003200e3016000070673008c817100c3
:100e900001003200640070004200de004e5edd00a2
:100ea0000c007000c258de0001e0a00083010700c2
:100eb000cf017800818071004f06be004f05be0053
:100ec0004f04be00000006008c8343000d044c005c
:100ed000e0844c0060054d000000e9000a00e000dd
:100ee000d4ff32008c8343000d044c00e0844c009e
:100ef00060054d000000e900ceff37000c03430001
:100f00008d834b0060044c00e0844c000000e9003d
:100f10000900e000d8ff32000c0343008d834b0032
:100f200060044c00e0844c000000e900d2ff370070
:100f30004200de004e5edd000c007000c258de0094
:100f400001e0a000cf0178000300e000daff3200ea
:100f500060001000e0801800d7ff3700f0ff2f007e
:100f6000aaff3700f0ff2f00b9ff37000404be00ce
:100f70002f010700870678000004fd008104fd00b2
:100f80002b010700078366000678a30003003200e8
:100f90000960a7000800be002c0037000d78a300f0
:100fa000020032000800be00280037000778a300c6
:100fb00026003a0001f0a10009f0a1000668a30094
:100fc00003003200f1ff2700f0ff2f00baff3700c7
:100fd0000d68a300030032000800be008c80700082
:100fe000b5ff37000768a30007003a000648a300d2
:100ff00003003200f1ff2700f0ff2f00aeff3700a3
:101000000d48a300030032006000b8008c8070001f
:10101000a9ff37000748a3000400320001f82700a9
:10102000000020008c807000a3ff370076010700cd
:101030000004fd008104fd00020578007201070034
:101040000802be008a01780059ff37000160a00045
:10105000120220003281880097ff37000100e00073
:10106000120032000500e00010003200889fbe0030
:101070008a9fbe008c9fbe000006eb0001f8a30013
:101080000300320060001000e08018000cf0a000a7
:1010900005f8a3000300320060021200e0821a008b
:1010a0000cf0a2008005eb0041ff37006000b800a3
:1010b000020005000383680007002800070363009f
:1010c000470ade000480a100c71ade000580a100e7
:1010d000f70f20000720e100420032000728e1005e
:1010e00040003200889fbe008a9fbe008c1f78009f
:1010f000f107b200f307b2000400e0006400320020
:101100000170a0000500e000680032000370a0003c
:1011100085054200eb07b1000204b8000302b800e5
:101120008484440060854a00020ab8008484440034
:101130000a854a00030ab80004054500040033008c
:101140000804d0008984d2000a85d2008b05e9000a
:101150006158e1003d0035000210200009016100e6
:101160000308200089816100f7072000878364005d
:1011700008867300c84cde00c853dd008784740005
:101180004855de000300e0000600320082037600ce
:10119000040032008904e80060054d000a88a300bd
:1011a0000c003a00f70f20000758e10044003d0012
:1011b0000a70a100c75ddd000a8575008a00730012
:1011c000090078004f0678004f05be004f04be00ae
:1011d000000006000a05d1008984d3008b05e800d1
:1011e000f0ff3700881f78000604780090000700a1
:1011f000070278000001fd008101fd008c0007005e
:1012000087027800850372000778a300050032008a
:101210000001fd008101fd009f0007004f047800e0
:1012200000000600850372000748a3000300320097
:10123000f0ff2f00f1ff2700f8ff3700000020002b
:1012400001f8270088807000f4ff370088017800db
:101250004848dd00808171004848de00c850dd004c
:1012600001007000c850de00060478000b01780011
:101270001600070088807000d2ff37000500e000ec
:1012800005003200170020003a0007009dff3700dc
:1012900081037000f9ff3a00860078004f0678005d
:1012a0004f05be004f04be0000000500830371001f
:1012b000f9ff3200270020002e00070094ff3700be
:1012c00001f8270086807000f4ff37000100e0007d
:1012d00026003200610111007810e10023003c007b
:1012e0006022b8007010e100040035008002780030
:1012f000010078008000eb00700151000200e00066
:101300000900340070031100062add00822ade0085
:101310008603dd00878272000200de00860bdd009e
:10132000070070008208de0084817100f4ff27004e
:1013300004826200848171000400280084826200bb
:101340006102600005f0a600000006000482710042
:10135000070032000000e800e080480000000600be
:101360000002be006000b800efff37006000b80068
:1013700000000600889fbe000004eb006138e10019
:1013800016003a000100e00008003a00c800de0044
:101390004800dd00880020000100e00003003a0062
:1013a000c800de004800dd00680444008184cf00ee
:1013b000e9845400060034008908dd00f08314003d
:1013c0008703de00878070000900dd000904440007
:1013d000610214004f04be00000006000300e0009c
:1013e00008003a00c811de004811dd008800200026
:1013f0000300e00003003a00c811de004811dd00e0
:10140000680444008384cf00e9845400060034005b
:101410008919dd00f08314008713de0087817100d5
:101420000911dd0009044400e1021400e9ff37005e
:101430002700200001f0a70017002000470bde0066
:10144000f60fb200040032000643e8000a00320042
:101450004702b3000000060001037800f607b2005f
:101460000603700002003a000703b3000000060004
:101470008702b3000000060001037800f607b200ff
:1014800006037000020032000770a0000000060092
:101490000760a000000006000478a30004003200ea
:1014a0000578a300030032000168a30001003a00a0
:1014b0000200be000160a000000006008101700073
:1014c000270032008002eb0001f8a3000300320085
:1014d00060001000e080180015002000f4072000d4
:1014e0000202420020003400f7032000870360005e
:1014f00006042000000363000208200000016100d0
:101500004700de00c909dd0000807100c708de0069
:101510000600e00008003200870371000600320078
:101520001000b0000180b0000188a300020032006a
:10153000c108de000402e800f107b200f30f20004a
:101540000320e10003003d004722dd00810072001e
:101550002900370001f827000000eb0026003700c3
:101560006000b80000000600680212007f20e10061
:10157000020034006000b8001f0037006011b8009e
:101580007020e1000400350080017800010078003f
:101590008000eb00700252000400e00009003400fb
:1015a000f00312000719dd008419de000703dd00d7
:1015b000868171000400de00070bdd00060070006c
:1015c0008408de00f7ff2700838363008703710030
:1015d0000600280003036300070032000700e00054
:1015e00003003a00610160000281730002003200d2
:1015f0001000b0000180b0000500a6000000060049
:1016000001f0a000000006004f0ade004709de00de
:10161000f107b200f20fb2000b003200f207b10086
:101620000170a000c708dd00c901de0083807000e2
:101630004700dd000400a600000006006000100066
:10164000e080180000000600810f700001003a00e1
:10165000000006008182cf000500e00010003e007f
:101660008082cf00ee8242007028e1000400390041
:1016700007003e00800078000000eb000e003700fd
:10168000708312008600de000500dd000a003700ce
:10169000708352008600dd000000eb00060037007a
:1016a000e28252008508dd00708312000603de002e
:1016b000868070000500dd007507b0000501ea00b6
:1016c0000400a6000000060060001000e080180082
:1016d00000000600889fbe008a9fbe00841f78001d
:1016e0006c0007004f00780011003300f0ff2f005e
:1016f000838f6c0006003b00040565000a00a7000c
:101700000800370009f0a60010002000080037008c
:10171000820f5400838f5c0003003900100020000a
:1017200001003e000000200009f0a7000000ea00d0
:101730004f05be004f04be000000e00000000600a0
:10174000889fbe008a9fbe00008270000402710064
:1017500004827100260032000004be000200be00b8
:101760006011b8006b092000950220000182cf00b3
:101770000a0039000541b1000082cf00070039009e
:101780000541b1000982cf00040039000541b100d4
:101790000882cf00010039000541b1000542520026
:1017a000120032000a003b00828171006101640076
:1017b0008100d1000080d3008984d3000884d30045
:1017c0008b05e8000442e800f7ff3a000700370005
:1017d0000804440089844c000000480081804800cf
:1017e0008b05e9000442e900f9ff3a000300070015
:1017f0004f05be004f04be0000000600810020001f
:10180000618055000b003d000b00200061fe2f00a1
:101810000100e1001d00340082817100610164005b
:101820008904d1000884d3000000e800faff3a00e0
:10183000710020006100640003007000020060007d
:101840000900320061044400e0844c000988a500ce
:10185000050032008b05e8006808e10002003a004c
:101860008904d1000884d300f20f20000258e1005f
:1018700005003d00c75ddd00f907b20089807500f5
:1018800008007800000006000bf827008b007800a5
:10189000000005000004be0024fc07000003be0099
:1018a0000405be000200be0020fc0700844f750046
:0418b000000006002e
:020000040000fa
:1018b4000600fa0001000900001feb00005feb00c6
:1018c4005e00b10020d0bf00004f7800008080008f
:1018d400118080004808de0000407800104798001e
:1018e40000808000118080004008de000040780005
:1018f4002047980000808000118080004809dd00a6
:101904004800de0000007100c808de0000407800d6
:1019140030479800008080001180800000407800eb
:10192400404798000e017800510020000005200077
:10193400cb0207000080fa00000006000000fa0055
:1019440020d0bf000080fb00cf80de0032012000e9
:1019540003002000820f5000838f5800b1003e0026
:1019640000060100130037001e0037002a0037006c
:10197400350037003900370043003700470037008f
:10198400510037005500370060003700640037000d
:101994006f003700a3003700a20037009100370022
:1019a4009b0037007f003700890037006d00370047
:1019b400770037000430ef000630ef0012c0b300a8
:1019c4006000b800a80507000041eb006000b80003
:1019d400a505070010c0b30020f0b700b4ff07004e
:1019e400a60037002280800033808000007d200024
:1019f40001002000800f5100818f59008c003600b7
:101a040024d0bf00e14f50008b003a0020c0b30047
:101a140020f0b7009900370012c0b3000000200086
:101a2400811c2400900507000041eb000000200009
:101a3400811c24008c05070030c0b30020f0b700df
:101a44009bff07008d00370024d0bf00e14f5000fa
:101a54007b003a008b0007008800370012c0b300f7
:101a640000002000011224007f0507000041eb0064
:101a74006000b8007c05070050c0b30020f0b70038
:101a84008bff07007d00370024d0bf00e14f5000da
:101a94006d003a007b0007007800370012c0b300e5
:101aa4006000b800700507000041eb000000200052
:101ab400011224006c05070070c0b30020f0b700c9
:101ac4007bff07006d00370024d0bf00e14f5000ba
:101ad4005f003a006b0007006800370012c0b300d3
:101ae40000002000011724005f0507000041eb00ff
:101af4000000200001172c005b05070090c0b30014
:101b040020f0b7006aff07005c00370024d0bf0054
:101b1400e14f500050003a005a00070057003700c8
:101b240012c0b3000000200001172c004e0507006e
:101b34000041eb0000002000011724004a050700c3
:101b4400b0c0b30020f0b70059ff07004b003700c6
:101b540024d0bf00e14f500041003a004900070083
:101b64004600370012c0b300000020000117240013
:101b74003d0507000041eb006000b8003a0507008e
:101b840030c1b30020f0b70049ff07003b00370025
:101b940024d0bf00e14f500033003a003900070061
:101ba4003600370012c0b3006000b8002e050700ed
:101bb4000041eb0000002000011724002a05070063
:101bc40010c1b30020f0b70039ff07002b00370025
:101bd40024d0bf00e14f500025003a00290007003f
:101be4002600370012c0b30000002000811c2c0026
:101bf4001d0507000041eb0000002000811c2c00a3
:101c040019050700f0c0b30020f0b70028ff070053
:101c140024d0bf00e14f500017003a00190007001c
:101c2400160037002070ef0000000000130037009a
:101c34000000000011003700000000000f00370012
:101c4400000000000d003700000000000b0037000a
:101c54000000000009003700000000000700370002
:101c640000000000050037000000000003003700fa
:101c74000000000001003700000000000080fa00ae
:101c8400000006000200fa00881f78000000eb0044
:101c9400000f7800d08d8000e18d800018c0b30063
:101ca40002002000031f2400ddfa07000000e0000a
:101cb400010035000044eb000804e000010032009c
:101cc4001e00a000508e8000618e800018c0b300fa
:101cd40002002000c3202400d1fa07000000e00025
:101ce400010035000044eb000804e000010032006c
:101cf4001e10a000f08d8000018e800018c0b3007b
:101d04000200200003222400c5fa07000000e000be
:101d1400010035000044eb000804e000010032003b
:101d24001e20a000308e8000418e800018c0b300b9
:101d340002002000c3202400b9fa07000000e000dc
:101d4400010035000044eb000804e000010032000b
:101d54001e30a000108e8000218e800018c0b300b9
:101d640002002000031f2400adfa07000000e00079
:101d7400010035000044eb000804e00001003200db
:101d84001e40a0001e007800cf80de00f20120007b
:101d940003002000820f5000838f580081003e0012
:101da400000601001f003700210037002300370020
:101db4002500370027003700290037002b003700a3
:101dc4002d0037002f003700310037003300370073
:101dd4003500370037003700390037003b00370043
:101de4003d0037003f003700410037004300370013
:101df4004500370047003700490037004b003700e3
:101e04004d0037004f0037005100370053003700b2
:101e14005500370057003700590037005b00370082
:101e24005d00370020c0b30021f0b7005d0037002b
:101e340040c0b30021f0b7005a00370020c1b300fe
:101e440021f0b7005700370020c1b30021f0b700dc
:101e54005400370080c0b30021f0b70051003700b0
:101e640020c1b30021f0b7004e00370080c0b3009a
:101e740021f0b7004b00370040c0b30021f0b70099
:101e84004800370000c1b30021f0b7004500370017
:101e940080c0b30021f0b7004200370080c0b30017
:101ea40021f0b7003f00370080c0b30021f0b70035
:101eb4003c003700a0c0b30021f0b7003900370060
:101ec40080c0b30021f0b70036003700a0c0b300d3
:101ed40021f0b7003300370080c0b30021f0b70011
:101ee4003000370060c0b30021f0b7002d00370088
:101ef40080c0b30021f0b7002a003700a0c0b300af
:101f040021f0b70027003700a0c0b30021f0b700cc
:101f14002400370000c1b30021f0b70021003700ce
:101f240080c0b30021f0b7001e003700a0c0b3008a
:101f340021f0b7001b00370080c0b30021f0b700c8
:101f44001800370000c1b30021f0b70015003700b6
:101f540080c0b30021f0b70012003700a0c0b30066
:101f640021f0b7000f003700a0c0b30021f0b70084
:101f74000c00370000c1b30021f0b700090037009e
:101f8400a0c0b30021f0b70006003700a0c0b30022
:101f940021f0b7000300370080c0b30021f0b70080
:101fa4000000000021d0bf008080fb0020d0bf00d3
:101fb4000080fb000000e900808f50000200320026
:101fc40021d0bf0020f0b70021d0bf008080fb00eb
:101fd40020d0bf000080fb0064005000808f5000c0
:101fe40002003a00a0c0b30020f0b70020d0bf0028
:101ff400f04f50000900320020d0bf00f24f5000d3
:102004000600320020d0bf00e64f5000030032002b
:1020140020d0bf00e44f500010003a000430ef001d
:102024000630ef0021d0bf00e24f500002003a001a
:102034000430ef000630ef002280800033808000ff
:102044008038210001002000800f5100818f590049
:1020540002003a0080c0b30021f0b70020d0bf00d6
:10206400f54f500002003a0040c0b30021f0b70021
:102074004f0478000080fa00000006001400fa0003
:10208400889fbe00000f9800110f98001b060700e0
:10209400ed05070037030700ad020700f30407004e
:1020a40029030700850507000040eb00004f780076
:1020b40030050700e14f50008a003a00310507005f
:1020c40028050700200798002e00900066004000b5
:1020d400100078008000eb0011fa0700323323006f
:1020e40033052400f2fb07000200200003582400fb
:1020f40010fb0700d2cc2c00c3042400ecfb070027
:1021040030079800410798003e019000ce019000ee
:10211400000020008120240006fb070002002000ac
:10212400030a240015fa0700508e8800618e880087
:102134002e00900064004000100078008000eb0046
:10214400f7f907003233230033052400d8fb0700d6
:102154000200200003582400f6fa0700d2cc2c0019
:10216400c3042400d2fb07003007980041079800fd
:102174003e019000ce019000000020008120240048
:10218400ecfa070002002000030a2400fbf9070010
:10219400f08d8800018e88002e0090000080e800f9
:1021a400100078008000eb00ddf9070032332300d3
:1021b40033052400befb070002002000035824005e
:1021c400dcfa0700d2cc2c00c3042400b8fb0700bf
:1021d40030079800410798003e019000ce0190001e
:1021e4000000200081202400d2fa07000200200011
:1021f400030a2400e1f90700308e8800418e88002c
:102204002e009000100078008000eb00c4f9070055
:102214003233230033052400a5fb0700020020000d
:1022240003582400c3fa0700d2cc2c00c3042400b2
:102234009ffb070030079800410798003e0190007b
:10224400ce0190000000200081202400b9fa07008c
:1022540002002000030a2400c8f90700d08d88007a
:10226400e18d88002e009000680040001000780086
:102274008000eb00aaf90700323323003305240061
:102284008bfb07000200200003582400a9fa070072
:10229400d2cc2c00c304240085fb0700300798002f
:1022a400410798003e019000ce01900000002000fc
:1022b400812024009ffa070002002000030a240062
:1022c400aef90700108e8800218e88001e40780029
:1022d400e84f500002003a000040eb00004f780045
:1022e4001e4fe80024d0bf00e14f500001003a0027
:1022f40064fe07001e407800e84f500023003a00b7
:10230400108e8000218e80006af9070080447800d6
:10231400f08d8000018e800066f90700004478008b
:10232400d08d8000e18d800062f9070000407800c4
:10233400394f9800484f9800504f98006b00470061
:102344000001780031002000000320004400070051
:10235400508d8000618d800056f90700004478009c
:10236400908d8000a18d800052f907000040780014
:10237400684f9800704f98006e0047000001780085
:102384002100200000042000350007000000eb00bd
:10239400100798000700370091040700204f9800a9
:1023a4002e4890007e0007001e0090000000e80008
:1023b40010079800a90407009e009000810f5000a8
:1023c400f5ff3c003aff37000a00fa0020079800a6
:1023d4003107980042079800e0cfb300004f78001f
:1023e4002e009000004078001e4f68002e009000e0
:1023f4004880de00004078001e4f68003e009000d8
:10240400004078001e4f68003e0090004880de00c7
:10241400004078001e4f68000000eb001007980091
:10242400080037001e009000ce009000008040009d
:10243400104078001e4f68001e0090000000e80065
:10244400100798009e0090003e009000808f50007e
:10245400f4ff35001e4078000080fa0000000600fa
:102464000c00fa00889fbe008a1f7800300798008d
:1024740041079800520798000f0478000f00780075
:10248400800478004e009000660040008000e9005f
:10249400110798000000e8000000e8000000d100e7
:1024a400800040000f007800818747000000e800aa
:1024b4000000d10000004000200798002e0090008a
:1024c400e1cfb300014878003e0090004880de0070
:1024d400804078002e009000114098003e0090004b
:1024e400804078002e009000214098004e0090001b
:1024f4004880de00804078002e0090003140980033
:102504004e009000804078002e00900041409800da
:102514000000eb00000f78000a0037009e007800ee
:10252400658040009e0078005e01900081004100bb
:10253400914078002e01900000004100014878008d
:102544001e0fe8004e009000660040009e0f5000f1
:10255400f2ff3c004e009000650540005e019000d3
:10256400ce0090003e00900097ff0700ae00900060
:102574008a804000804878004e009000e6004000c9
:102584002e0090005303070089077800880778001d
:102594004f0578004f04be000080fa0000000600da
:1025a4000200fa00004f780050808000e30f5000d2
:1025b40022003200e30f500005003e00e10f5000fe
:1025c40011003200e10f500015003e0007003700f3
:1025d400e50f500026003200e50f50001d003900c1
:1025e400e60f5000330032003e0037001e407800f2
:1025f400e24f40003e003a001030ef00100020008f
:10260400508088003b0037001e80fb004800dd003e
:10261400608088002000200050808800350037004a
:102624009e80fb0060808000010070006080880054
:1026340030002000508088002e0037001e80fb00f0
:102644004800dd0070808800400020005080880031
:10265400280037009e80fb0070808000010070001d
:1026640070808800500020005080880021003700ce
:102674008080800081122100008040001e48780084
:102684005000200050808800708080008000e900a5
:1026940080808000808f500002003a00600020009b
:1026a40050808800808080000000e80080808800de
:1026b4001000370071808000608080008212210049
:1026c40041ff07009e4f500004003a0071808000d3
:1026d4006080800082122100080007000a30ef00a9
:1026e400040037000a30ef0000000000010037004a
:1026f400000000000080fa00000006000600fa0056
:10270400000f780011079800220798001e00780037
:1027140011052000810f5000040032002105200023
:10272400810f500005003200080037002e00900091
:102734001040780007000700040037002e009000c6
:102744001040780066000700000000000080fa00d6
:10275400000006000200fa00004f78001e80fb0013
:10276400cf80de005201200003002000820f5000c1
:10277400838f580058003e00000601001500370002
:1027840016003700180037001a0037001c00370005
:102794001e003700200037002200370024003700d5
:1027a40026003700280037002a0037002c003700a5
:1027b4002e00370030003700320037003400370075
:1027c40036003700380037003a0037003c00370045
:1027d4003e0037002070ef003f00370010c0b30008
:1027e40020f0b7003c00370020c0b30020f0b70051
:1027f4003900370030c0b30020f0b700360037008e
:1028040040c0b30020f0b7003300370050c0b3001d
:1028140020f0b7003000370060c0b30020f0b700ec
:102824002d00370070c0b30020f0b7002a00370035
:1028340080c0b30020f0b7002700370090c0b30079
:1028440020f0b70024003700a0c0b30020f0b70088
:1028540021003700b0c0b30020f0b7001e003700dd
:10286400c0c0b30020f0b7001b003700d0c0b300d5
:1028740020f0b70018003700e0c0b30020f0b70024
:1028840015003700f0c0b30020f0b7001200370085
:1028940000c1b30020f0b7000f00370010c1b3002f
:1028a40020f0b7000c00370020c1b30020f0b700bf
:1028b4000900370030c1b30020f0b700060037002c
:1028c40040c1b30020f0b7000300370050c1b3008b
:1028d40020f0b700000000000080fa0000000600ad
:1028e4000200fa00004f78001e407800e14f5000cb
:1028f40003003a0010c0b30024f0b700050037000d
:102904001e4078000004e00002003a002470ef004a
:102914002070ef000080fa00000006000000fa00ba
:1029240013e1a90011e1a9001061a8001021a90078
:1029340081088000f0fc2f0000806000800888007f
:102944000a21ef000621ef002026200070088800ed
:1029540000a02500600888002142800080ff2f002d
:10296400008060000000a000204288000108a90047
:102974002108a80011e1a8000080fa000000060068
:102984000400fa00881f7800008fbe002108800030
:10299400f0fc2f0000806000200888001e017800f1
:1029a4009e0190000068290081c12400e1f807001d
:1029b40018c0b30002f02f00f37724009af7070041
:1029c4000000e00001003c000044eb000804e000cb
:1029d4005400320021088000f0fc2f0000806000c9
:1029e4000040a000200888001e0178009e0190008d
:1029f4000068290081c12400cef8070002002000ed
:102a040003102400cbf8070018c0b30002f02f0015
:102a1400f377240084f707000000e00001003c0085
:102a24000044eb000804e00032003200210880007a
:102a3400f0fc2f00008060000050a00020088800f7
:102a44001e0178009e0190000068290081c12400c5
:102a5400b8f807000200200003282400b5f8070096
:102a640018c0b30002f02f00f37724006ef70700bc
:102a74000000e00001003c000044eb000804e0001a
:102a840010003200210880000003200001007000c3
:102a9400200888001e0178009e019000006829002b
:102aa40081c12400a3f80700020020000338240099
:102ab400a0f807005ef707000000780010088800ff
:102ac400200037001e0178009e0190000068290054
:102ad40081c1240097f80700020020000328240085
:102ae40094f8070052f707000000780010088800e7
:102af400140037001e0178009e0190000068290030
:102b040081c124008bf80700020020000310240078
:102b140088f8070046f707000000780010088800ce
:102b2400080037001e0178009e019000006829000b
:102b340081c124007ff807003df7070000007800fa
:102b4400100888004f0478000080fa000000060096
:102b54000000fa0005e1a900000020006131240012
:102b640087ff07000068a9002068a80005e1a80005
:102b74000080fa00000006000400fa00881f7800b4
:102b8400008fbe00f1088000f0fc2f000080600080
:102b9400f00888001e0178009e019000006829005a
:102ba40081c1240063f8070018c0b30002f02f00ad
:102bb400f37724001cf707000000e00001003c004c
:102bc4000044eb000804e00054003200f1088000e7
:102bd400f0fc2f00008060000040a000f008880096
:102be4001e0178009e0190000068290081c1240024
:102bf40050f8070002002000031024004df80700dd
:102c040018c0b30002f02f00f377240006f7070082
:102c14000000e00001003c000044eb000804e00078
:102c240032003200f1088000f0fc2f0000806000c8
:102c34000050a000f00888001e0178009e0190005a
:102c44000068290081c124003af80700020020002e
:102c54000328240037f8070018c0b30002f02f003f
:102c6400f3772400f0f607000000e00001003c00c8
:102c74000044eb000804e00010003200f10880007a
:102c84000003200001007000f00888001e01780095
:102c94009e0190000068290081c1240025f80700e6
:102ca400020020000338240022f80700e0f60700a1
:102cb40000007800d0088800200037001e0178004a
:102cc4009e0190000068290081c1240019f80700c2
:102cd400020020000328240016f80700d4f6070099
:102ce40000007800d0088800140037001e01780026
:102cf4009e0190000068290081c124000df807009e
:102d040002002000031024000af80700c8f6070098
:102d140000007800d0088800080037001e01780001
:102d24009e0190000068290081c1240001f8070079
:102d3400bff6070000007800d00888004f04780030
:102d44000080fa00000006000000fa001fe1a9005c
:102d540000002000a147240087ff07001e21a900ce
:102d64000368a9002368a8001fe1a8000080fa00f6
:102d7400000006000000fa001160800080ff2f00b0
:102d8400008060001060880000fa20002060880045
:102d940023aca800238ca80011618000f03f2f0011
:102da4000080600000a0a0001061880030002000b6
:102db40020618800c3aca800c38ca8001166800001
:102dc400f03f2f000080600000a0a0001066880083
:102dd400300020002066880001eca8000080fa0082
:102de400000006000000fa00889fbe00b48d800039
:102df400c58d8000908d8000a18d800018c0b30027
:102e04000001be000400be0085f607000000e000db
:102e1400010035000044eb000804e0000d0032001e
:102e2400988d8000a98d8000b48d8000c58d8000b0
:102e3400c0808000d18080000001be000400be007c
:102e4400d7f607000801be00c9000700b08d88004e
:102e5400c18d8800b48d8000c58d8000908d800068
:102e6400a18d800018c0b3000001be000400be00a4
:102e74006df607000000e00001003c000044eb0098
:102e84000804e0000d003200988d8000a98d8000b8
:102e9400b48d8000c58d8000c0808000d18080000a
:102ea4000001be000400be00b4f607000801be0025
:102eb40097000700b08d8800c18d8800b08d800018
:102ec400c18d800018c0b3006011b80054f607002b
:102ed4000000e000010035000044eb000804e000bd
:102ee40004003200c3cca90024eea800c3eca8005f
:102ef40003003700c3eca90024cea800c3cca8006b
:102f0400b08d8000c18d80006b000700020020009e
:102f14000322240066f8070066f607000000780024
:102f240030668800748d8000858d8000508d80000f
:102f3400618d800018c0b3000001be000400be0013
:102f440037f607000000e000010035000044eb0004
:102f54000804e0000d003200588d8000698d800067
:102f6400748d8000858d8000c0808000d1808000b9
:102f74000001be000400be0089f607000801be007f
:102f84007b000700708d8800818d8800748d80001f
:102f9400858d8000508d8000618d800018c0b30045
:102fa4000001be000400be001ff607000000e000a0
:102fb40001003c000044eb000804e0000d00320076
:102fc400588d8000698d8000748d8000858d80000f
:102fd400c0808000d18080000001be000400be00db
:102fe40066f607000801be0049000700708d8800de
:102ff400818d8800708d8000818d800018c0b300a1
:103004006011b80008f607000000e00001003c0071
:103014000044eb000804e0000400320023cca900c3
:1030240015eea80023eca8000300370023eca90048
:1030340015cea80023cca800708d8000818d80005f
:103044001d000700020020000322240018f80700d6
:1030540018f6070000007800306188004f04be00b5
:103064000080fa00000006000600fa00008fbe008f
:10307400424798004e4090000004e00005003a00ea
:103084001e0178009e019000528d8800638d880097
:10309400070037004e409000e14f500004003a0012
:1030a4001e0178009e019000928d8800a38d8800f7
:1030b4000080fa00000006000400fa00881f78006f
:1030c400008fbe0018c0b3006011b8001e00780065
:1030d4009e009000d4f507000000e00001003d00d0
:1030e4000044eb000804e000030032001e007800f6
:1030f4009e009000030037001e0078009e009000a0
:1031040001f0a2004f0478000080fa0000000600dd
:103114000800fa00881f7800008fbe00220798007c
:103124003307980018c0b3002e019000be01900030
:103134001e0078009e009000bbf507000000e00030
:1031440001003c000044eb000804e00003003200ee
:103154001e0078009e009000020037002e009000b0
:10316400be0090004f0478000080fa0000000600c2
:103174000800fa00881f7800008fbe00220798001c
:103184003307980018c0b3002e019000be019000d0
:103194001e0078009e009000a1f507000000e000ea
:1031a400010035000044eb000804e0000300320095
:1031b4001e0078009e009000020037002e00900050
:1031c400be0090004f0478000080fa000000060062
:1031d4000c00fa00881f7800008fbe0022079800b8
:1031e40033079800440798005507980018c0b300a7
:1031f4004e019000de0190001e0078009e009000b9
:1032040089f507000000e00001003c000044eb00e9
:103214000804e000040032004e019000de0190003a
:10322400028fbe000e00370018c0b3002e019000bc
:10323400be0190001e0078009e00900078f5070003
:103244000000e000010035000044eb000804e00049
:10325400030032002e019000be019000028fbe00d8
:103264001e0078009e0090004f0478000080fa0051
:10327400000006000400fa00008fbe00b2fd20002a
:10328400930424001e0078009e009000a9f6070015
:10329400020020004333240085f707000080fa0071
:1032a400000006000400fa00008fbe00b2fd2000fa
:1032b400930424001e0078009e0090007cf7070011
:1032c40002002000433324009af607000080fa002d
:1032d400000006000600fa00100798002107980075
:1032e4000040eb00004f78005a000700ae00900049
:1032f400810f5000110034000040eb00004f7800b3
:10330400060037001e80fb009e00900000804000f5
:10331400104078000b0007001e4fe8009e80fb0061
:103324002e009000808f5000f6ff35003300070018
:103334000004e00001003a00270007000080fa00c2
:10334400000006000200fa00004f78009080800020
:1033540081022100008040001e4878009080800097
:103364000000e8009080880091808000f007200031
:10337400808f5000010034001230ef000080fa000a
:10338400000006000200fa00a080800081022100f3
:1033940000804000104f7800a0808000810221004e
:1033a400008040008040eb0001487800a08080004d
:1033b4000000e800a0808800a1808000f0072000c1
:1033c400808f5000010034001430ef001e4078005c
:1033d4000080fa00000006000200fa0010c0b300ea
:1033e40016f0b700e7ff0700004f78001e80fb00cf
:1033f400201188000080fa00000006000000fa0096
:1034040016d0bf000080fa00000006000200fa0097
:1034140091808000a0808000808f500005003500de
:1034240091808000a0808000008f50001e007800f2
:103434000600370091808000a0808000008050004a
:1034440001082000010f40001e0078000080fa00ef
:10345400000006000000fa00ecff0700010820004d
:10346400008050000080fa00000006000000fa000e
:1034740021e3a9002143a80001198000f0cf2f0007
:1034840000806000001988002043a9000119800011
:10349400000e20000100700000198800111980003e
:1034a400f0ff210000806000101988002343a80069
:1034b40011198000f0cf2f000080600010198800df
:1034c4001119800030f82f00008060000040a00037
:1034d400101988002203a9002223a90025e3a900ca
:1034e400f0c0b30024e3b70021198000f00f2e00d0
:1034f4008080600000f02000010070002019880026
:103504003303a9002e0ea8002f6ea8006f2ea8006a
:103514001e2ea8004feea80030c3a8003163a800f7
:103524002e03a8003063a80031e3a80041198000ed
:1035340000fc2f00008060004019880028e3a900e7
:1035440001a8a90021a8a80021e3a8000080fa008e
:10355400000006000000fa002023a8000080fa0002
:10356400000006000000fa00e01c21000080fa00c0
:10357400000006000000fa0023d0bf000080fa001b
:10358400000006000000fa002370ef000080fa003b
:10359400000006000200fa00004f78004100070016
:1035a4000000e0000c003400e0808000810a21006b
:1035b400008040001e487800e08080000000e800a1
:1035c400e0808800e1808000f0072000808f5000b8
:1035d400010034001c30ef000080fa0000000600f7
:1035e4000200fa00f0808000810a2100008040007f
:1035f400104f7800f0808000810a21000080400094
:103604008040eb0001487800f08080000000e80072
:10361400f0808800f1808000f0072000808f500047
:10362400010034001e30ef001e4078000080fa00d4
:10363400000006000000fa00e1808000f0808000b5
:10364400808f50000200320010c0b3000100370028
:103654000040eb000080fa00000006000200fa00bf
:10366400e1808000f0808000808f500005003500ec
:10367400e1808000f0808000008f50001e00780000
:1036840006003700e1808000f08080000080500058
:1036940001082000010f40001e0078000080fa009d
:1036a400000006000000fa00ecff070001082000fb
:1036b400008050000080fa00000006000000fa00bc
:1036c4002002a9000111800090ff2f0000806000fb
:1036d4000011880020a2a9002062a8005005200043
:1036e4004011880023a2a80023e2a9000188a900b0
:1036f4002188a80011118000f0f32f0000806000e1
:103704000060a000101188000168a9002168a800c9
:1037140021e2a8002342a8000080fa00000006006d
:103724000600fa0010079800210798000040eb00fb
:10373400004f78000040eb00004f78000e00370087
:1037440000000000111180000020200000806000b3
:103754000000e000fbff3a001e00900010407800db
:103764000080fb00201188001e0090000000e8008b
:10377400100798001e4fe8009e80fb002e0090006a
:10378400808f5000eeff35000080fa000000060034
:020000040000fa
:103794002010000002000000800000000010000063
:1037a4000a00000080000000a811000026000000ac
:1037b40080000000181000000400000082000000d7
:1037c4000000000040000000ce1100000a000000cc
:1037d40080000000221000000200000080000000b1
:1037e400281000008000000080000000121000007b
:1037f4000600000080000000a81000008000000007
:10380400800000001c100000040000008000000084
:103814002811000080000000800000000a10000051
:1038240008000000800000002410000002000000d6
:1038340082000000010000002610000002000000c9
:083844008000000000000000fc
:020000040000fa
:10384c000000fa000e2eef001e2eef002e2eef00c1
:10385c003e2eef004e2eef005e2eef006e2eef0090
:10386c00214ea90060cea90060eea90011cea900de
:10387c0011eea90020cea90020eea900103a80007c
:10388c00000178000260a100600420007105200096
:10389c00237420008049780081497800824978009f
:1038ac002136800000f82f00008060008001b300fa
:1038bc00203688001134800000fc2f00008060004e
:1038cc000000a00010348800103a8000000178003d
:1038dc000260a00060042000710520002374200009
:1038ec008049780081497800824978000080fa008c
:1038fc00000006000000fa00f0032000303a8800b7
:10390c00213a8000f0f32f0000806000203a8800fc
:10391c00213a800000fe2f00008060000000a00013
:10392c00203a88001200200080072000a109200006
:10393c0033742000804978008149780082497800ee
:10394c00103a8000000178000200a0006004200002
:10395c00710520002374200080497800814978008b
:10396c008249780000000000113a80000000270016
:10397c008080600000002100808f5000faff3a0028
:10398c0000000000113a800000022000008060005e
:10399c000000e000fbff32000080fa00000006008f
:020000040000fa
:02000004000af0
:04afe000cfff00009f
:020000040000fa
:02000004000af0
:04afe400f7ff000073
:020000040000fa
:02000004000af0
:04afe8007fff0000e7
:020000040000fa
:02000004000af0
:04afec005fff000003
:020000040000fa
:02000004000af0
:04aff00038ff000026
:020000040000fa
:02000004000af0
:04aff400ffffff005c
:00000001FF
